:020000040000FA
:1000000000020010550100005D0100005F010000CA
:1000100061010000630100006501000000000000B4
:100020000000000000000000000000006701000068
:1000300069010000000000006B0100006D0100007C
:100040006F0100006F0100006F0100006F010000F0
:100050006F0100006F0100006F0100006F010000E0
:100060006F0100006F0100006F0100006F010000D0
:100070006F0100006F0100006F0100006F010000C0
:100080006F0100006F0100006F0100006F010000B0
:100090006F0100006F0100006F0100006F010000A0
:1000A0006F0100006F0100006F0100006F01000090
:1000B0006F0100006F0100006F0100006F01000080
:1000C0006F0100006F0100006F01000000F002F8F6
:1000D00000F031F80AA090E8000C82448344AAF1B1
:1000E0000107DA4501D100F026F8AFF2090EBAE8AF
:1000F0000F0013F0010F18BFFB1A43F0010318475C
:1001000088060000A8060000002300240025002621
:10011000103A28BF78C1FBD8520728BF30C148BF6A
:100120000B607047642900F07B80002070471FB58A
:100130001FBD10B510BD00F05CF91146FFF7F7FFC9
:1001400000F0AAFA00F07AF903B4FFF7F2FF03BC5B
:1001500000F082F90948804709480047FEE7FEE7BA
:10016000FEE7FEE7FEE7FEE7FEE7FEE7FEE7FEE767
:1001700004480549034A054B704700006904000024
:10018000CD00000098C00720000200100000001001
:100190000FB41CB5074B06AA7B446946009005982E
:1001A00000F00FF90020694600F01EF91CBC5DF854
:1001B00014FB00004D0200002DE9F0410E460446FC
:1001C000002020622046E168884730B3252805D00A
:1001D000D4E901219047206A401CF2E7E1682046FB
:1001E00000278847050018D0A5F14100192802D83A
:1001F00020354FF400673246294620462760FFF736
:1002000091FF40B1012804D0F61D26F007060836FC
:10021000D8E7361DD6E72846DAE7206ABDE8F08140
:100220002DE9F0410646002410687529314616A5CF
:1002300010D0AFF30080002802DA404213A507E097
:1002400031688A0701D512A502E0490704D511A536
:10025000012401E0AFF3008000210A2206F1240707
:1002600009E0B0FBF2FCB0FBF2F302FB1C00303003
:1002700078541846491C0028F3D123462A463046B4
:10028000BDE8F04100F03FB8000000002D00000084
:100290002B0000002000000010B5203AC0F00B80B9
:1002A000B1E81850203AA0E81850B1E81850A0E87A
:1002B0001850BFF4F5AF5FEA027C24BFB1E81850D4
:1002C000A0E8185044BF18C918C0BDE810405FEA44
:1002D000827C24BF51F8043B40F8043B08BF7047C0
:1002E000D20728BF31F8023B48BF11F8012B28BFC5
:1002F00020F8023B48BF00F8012B7047FFFFFFFFCB
:100300007047704770472DE9F0470D469946924671
:10031000044600F124080168880604D5E06921F04C
:100320001001216000E00120A84201DD471B00E030
:100330000027A1697A1902EB0900081AA061207848
:10034000C00602D42046AFF30080002608E0D4E9BE
:1003500001211AF806009047206A401C761C206292
:100360004E45F4DB2078C0060AD52046AFF3008066
:1003700006E0D4E9012130209047206A401C206229
:10038000381EA7F10107F4DC07E0D4E9012118F8D1
:1003900005009047206A401C2062281EA5F1010537
:1003A000F3DC2046AFF300802078000602D502205F
:1003B000BDE8F0870120FBE701694A1C026108786B
:1003C000704700B58FB0CDE9013100210591054995
:1003D0007944CDE9031011466846FFF7EDFE0FB0F2
:1003E00000BD0000E5FFFFFF0A6802F8010B0A608C
:1003F0007047754600F02CF8AE4605006946534636
:1004000020F00700854618B020B5FFF7B1FEBDE823
:1004100020404FF000064FF000074FF000084FF06B
:10042000000B21F00701AC46ACE8C009ACE8C009FC
:10043000ACE8C009ACE8C0098D46704710B5044669
:10044000AFF300802046BDE81040FFF77DBE0000FE
:100450000048704734C0072001491820ABBEFEE7B2
:10046000260002007047000020204B4908604B48DE
:10047000D0F8A00100F0200030B100BF464800686D
:1004800000F040000028F9D0032043499C3908605F
:1004900000204249C1F8A8013F490C310860012001
:1004A0003D49943908603E483C4984310860AA209F
:1004B0003A498C3108605520086001203749803165
:1004C0000860AA2035498C31086055203349C1F8AD
:1004D0008C0000BF31488830006800F08060002840
:1004E000F8D003202D4980310860AA202B49C1F89B
:1004F0008C00552029498C31086000BF274888307E
:10050000006800F04070B0F1407FF7D1232023490C
:10051000A4310860AA202149C1F8AC0055201F4928
:10052000AC31086001201D49A0310860AA201B4998
:10053000AC31086055201949C1F8AC0000BF17481C
:10054000A830006800F480600028F8D00320134928
:10055000A0310860AA201149C1F8AC0055200F490C
:10056000AC31086000BF0D48A830006800F440704E
:10057000B0F5407FF7D10B480849C431086000202E
:100580000649C1F8C8010846006820F4704040F4EC
:100590008040086070470000A0C10F4000C00F40BD
:1005A00063000500DE87280400200BE000BF084937
:1005B000097D01F020010029F9D00649095C044AAF
:1005C0001170401C0349095C0029EFD170470000FD
:1005D00000C0094000C0072000B599B0642213494B
:1005E0006846FFF759FE002019E01DF800100A299F
:1005F00009D100BF0E49097D01F020010029F9D081
:100600000D210B4A117000BF0949097D01F020013D
:100610000029F9D01DF80010054A1170401C1DF882
:1006200000100029E1D119B000BD0000240700002E
:1006300000C009400A48006840F00A000849086004
:10064000002008490860832007490873A220087029
:100650000020087103200873802081F83000704763
:1006600000C00240ACC10F4000C0094006484068CD
:1006700040F4802004494860002004490860044890
:10068000044908607047000000C00240A8C10F4044
:10069000040121000040034070B51C4800681C495B
:1006A00008431A49C439C1F8C40002201949087026
:1006B000FFF7DCFFFFF7BEFFFFF78EFF00BF164816
:1006C000006B00F004000028F9D0002006E00021B3
:1006D00000E0491CB1F57A7FFBDB401CB0F57A7F66
:1006E000F5DB02210B48401E41760B4880694FF62E
:1006F000F07100EA010424110025224607A10848F0
:10070000FFF746FDFFF750FF002070BDC4C00F404B
:100710000010000241C00920004003402564000091
:1007200000C0072048454C4C4F0A0A0D46524F4D19
:1007300020444553440A0A0D554152542049532040
:10074000574F524B494E470A0A0D00000000000067
:100750000000000000000000000000000000000099
:100760000000000000000000000000000000000089
:100770000000000000000000000000000000000079
:100780000000000000000000A807000000000010AA
:100790000002000008010000A807000000C00720B8
:0807A0009800000008010000B0
:04000005000000CD2A
:00000001FF
