:020000040000FA
:1000000000020010550100005D0100005F010000CA
:1000100061010000630100006501000000000000B4
:100020000000000000000000000000006701000068
:1000300069010000000000006B0100006D0100007C
:100040006F0100006F0100006F0100006F010000F0
:100050006F0100006F0100006F0100006F010000E0
:100060006F0100006F0100006F0100006F010000D0
:100070006F0100006F0100006F0100006F010000C0
:100080006F0100006F0100006F0100006F010000B0
:100090006F0100006F0100006F0100006F010000A0
:1000A0006F0100006F0100006F0100006F01000090
:1000B0006F0100006F0100006F0100006F01000080
:1000C0006F0100006F0100006F01000000F002F8F6
:1000D00000F031F80AA090E8000C82448344AAF1B1
:1000E0000107DA4501D100F026F8AFF2090EBAE8AF
:1000F0000F0013F0010F18BFFB1A43F0010318475C
:1001000048050000680500000023002400250026A3
:10011000103A28BF78C1FBD8520728BF30C148BF6A
:100120000B607047642900F07B80002070471FB58A
:100130001FBD10B510BD00F03CF91146FFF7F7FFE9
:1001400000F074FA00F0C9F803B4FFF7F2FF03BC43
:1001500000F054F90948804709480047FEE7FEE7E8
:10016000FEE7FEE7FEE7FEE7FEE7FEE7FEE7FEE767
:1001700004480549034A054B704700008504000008
:10018000CD00000098C00720000200100000001001
:100190000FB41CB5074B06AA7B446946009005982E
:1001A00000F083F80020694600F092F81CBC5DF86E
:1001B00014FB0000350100002DE9F0410E46044615
:1001C000002020622046E168884730B3252805D00A
:1001D000D4E901219047206A401CF2E7E1682046FB
:1001E00000278847050018D0A5F14100192802D83A
:1001F00020354FF400673246294620462760FFF736
:1002000091FF40B1012804D0F61D26F007060836FC
:10021000D8E7361DD6E72846DAE7206ABDE8F08140
:100220002DE9F0410646002410687529314616A5CF
:1002300010D0AFF30080002802DA404213A507E097
:1002400031688A0701D512A502E0490704D511A536
:10025000012401E0AFF3008000210A2206F1240707
:1002600009E0B0FBF2FCB0FBF2F302FB1C00303003
:1002700078541846491C0028F3D123462A463046B4
:10028000BDE8F04100F03CB8000000002D00000087
:100290002B000000200000007047704770470000EE
:1002A00001694A1C02610878704700B58FB0CDE93A
:1002B00001310021059105497944CDE9031011462A
:1002C0006846FFF779FF0FB000BD0000E5FFFFFFB4
:1002D0000A6802F8010B0A60704710B50446AFF3D4
:1002E00000802046BDE81040FFF72EBF0048704751
:1002F00034C007207047000000000000FFFFFFFF30
:100300002DE9F0470D4699469246044600F124082F
:100310000168880604D5E06921F01001216000E041
:100320000120A84201DD471B00E00027A1697A19DE
:1003300002EB0900081AA0612078C00602D420460A
:10034000AFF30080002608E0D4E901211AF8060086
:100350009047206A401C761C20624E45F4DB2078D2
:10036000C0060AD52046AFF3008006E0D4E901219B
:1003700030209047206A401C2062381EA7F10107F8
:10038000F4DC07E0D4E9012118F805009047206A61
:10039000401C2062281EA5F10105F3DC2046AFF3C6
:1003A00000802078000602D50220BDE8F0870120F9
:1003B000FBE77546FFF79AFFAE46050069465346D0
:1003C00020F00700854618B020B5FFF7D1FEBDE844
:1003D00020404FF000064FF000074FF000084FF0AC
:1003E000000B21F00701AC46ACE8C009ACE8C0093D
:1003F000ACE8C009ACE8C0098D4670470149182037
:10040000ABBEFEE72600020010B500BF0948006B36
:1004100000F010000028F9D0064880694FF6F0710E
:1004200000EA01042411224603A10448FFF7B0FEAC
:1004300010BD0000004003402564000000C00720FC
:100440000C48006840F480500A49C439C1F8C4001F
:100450000848E4300068C1F8A8010748406840F443
:10046000802005494860054800680549084303495C
:1004700008607047C4C00F4000C002400040034005
:100480000201210020204B4908604B48D0F8A00110
:1004900000F0200030B100BF4648006800F0400086
:1004A0000028F9D0032043499C39086000204249C4
:1004B000C1F8A8013F490C31086001203D49943939
:1004C00008603E483C4984310860AA203A498C3192
:1004D0000860552008600120374980310860AA2053
:1004E00035498C31086055203349C1F88C0000BF74
:1004F00031488830006800F080600028F8D0032080
:100500002D4980310860AA202B49C1F88C00552064
:1005100029498C31086000BF27488830006800F006
:100520004070B0F1407FF7D123202349A431086007
:10053000AA202149C1F8AC0055201F49AC31086000
:1005400001201D49A0310860AA201B49AC31086078
:1005500055201949C1F8AC0000BF1748A830006801
:1005600000F480600028F8D003201349A03108600F
:10057000AA201149C1F8AC0055200F49AC310860E0
:1005800000BF0D48A830006800F44070B0F5407F0F
:10059000F7D10B480849C431086000200649C1F86A
:1005A000C8010846006820F4704040F480400860AC
:1005B00070470000A0C10F4000C00F40630005005D
:1005C000DE8728040A200C4908604FF000700B49B0
:1005D000086000200949C439C1F8AC0183200849EA
:1005E0000873A2200870002008710320087380207F
:1005F000034930310870704700C00240C4C00F404A
:1006000000C0094000210AE000BF074A127D02F045
:100610002002002AF9D0425C034B1A70491C425C4C
:10062000002AF1D17047000000C0094010B5FFF763
:10063000C9FFFFF705FFFFF7E7FE0248FFF7E2FFFC
:10064000002010BD00C00720680600000000001058
:1006500000020000080100006806000000C007203A
:080660009800000008010000F1
:04000005000000CD2A
:00000001FF
